:020000040800F2
:10000000F81D0020F1010008A564000885510008D2
:10001000155C0008D1070008A59400080000000046
:10002000000000000000000000000000417A00080D
:10003000190A000800000000796900088585000899
:100040000B0200080B0200080B0200080B0200085C
:100050000B0200080B0200080B0200080B0200084C
:100060000B0200080B0200080B0200080B0200083C
:10007000610900080B0200080B0200080B020008CF
:100080000B02000800000000E90300080B02000852
:100090000B0200080B0200080B0200080B0200080C
:1000A0000B020008698600080B0200080B0200081A
:1000B0000B0200080B0200080B0200080B020008EC
:1000C0000B0200080B0200080B0200080B020008DC
:1000D0000B0200080B0200080B0200080B020008CC
:1000E0000B0200080B0200080B0200080B020008BC
:1000F0000B0200080B0200080B02000800000000C1
:10010000000000000B020008000000000B020008C5
:100110000B02000800000000798600080B020008AE
:100120000B0200080B0200080B0200080B0200087B
:100130000B02000800000000000000000B02000895
:100140000B0200080B020008000000000000000085
:10015000000000000000000000000000000000009F
:100160000000000000000000000000000B0200087A
:100170000B0200080000000000000000000000006A
:10018000000000000B02000800000000000000005A
:10019000000000000000000000000000000000005F
:1001A00000000000000000000B0200080B02000825
:1001B0000B0200080B0200080B0200080000000000
:1001C000000000000B02000800000000000000001A
:1001D0000B0200080B020008DFF810D000F0F2F864
:1001E0000048004709990008AFF30080F81D00207F
:1001F0000648804706480047FEE7FEE7FEE7FEE7C1
:10020000FEE7FEE7FEE7FEE7FEE7FEE7F98500080A
:10021000D90100089FED1A1AF5EE000A40EE010A16
:10022000BDEEE00AF5EEC00A10EE100AF1EE10FA8B
:1002300038BF401E00EE100A1349F7EE001AB8EE60
:10024000C00A30EEC00ADFED0F0A20EE200AFCEEF5
:10025000C00A10EE900AC0F3080000EE900A01EB0D
:100260008000F8EE600A90ED011A70EE600A90EDE1
:10027000000A71EEE01A21EE800A00EE810A704752
:1002800083F9223E00000044149A0008DFED190AA9
:10029000B5EEC00A60EE200ABDEEE01A11EE100ABB
:1002A000F1EE10FA38BF401E00EE100A1349F7EEC7
:1002B000001AB8EEC00A30EEC00ADFED0F0A60EE99
:1002C000200ABCEEE00A10EE100AC0F3080000EEAF
:1002D000100A01EB8000B8EE400A90ED011A70EEB2
:1002E000C00A90ED000A71EEE01A21EE800A00EEDD
:1002F000810A704783F9223E00000044149A0008E6
:100300002DE9F05F0546002092469B46884606464A
:10031000814640241BE0284641464746224600F0DD
:1003200041F853465A46C01A914110D31146184617
:10033000224600F028F82D1A67EB01084F462246A6
:100340000120002100F01FF817EB00094E41201E8C
:10035000A4F10104DFDC484631462A464346BDE8A5
:10036000F09FD2B201E000F8012B491EFBD270478A
:100370000022F6E710B513460A4604461946FFF771
:10038000F0FF204610BD202A04DB203A00FA02F1DB
:10039000002070479140C2F1200320FA03F3194373
:1003A00090407047202A04DB203A21FA02F0002115
:1003B000704721FA02F3D040C2F120029140084375
:1003C00019467047064C074D06E0E06840F001030F
:1003D00094E8070098471034AC42F6D3FFF700FFCB
:1003E00058A2000878A2000810B5034801F0A8FC44
:1003F000024801F0A5FC10BD60080020CC080020D8
:1004000070B50546AC6AE06D00F0500098BBE06D39
:1004100040F40070E0652068006800F00800A8B1B2
:10042000206805F037F810B32068C06800F4005069
:10043000E8B9E06D20F48070E065E06D00F4805074
:10044000A8B9E06D40F00100E06510E02068C068E8
:1004500000F0020058B9E06D20F48070E065E06DB6
:1004600000F4805018B9E06D40F00100E0652046CE
:1004700001F062FC0CE0FFE7E06D00F0100018B145
:10048000204601F05BFC03E0606D416B2846884725
:1004900070BD70B50546AC6AE06D40F04000E065A7
:1004A000206E40F004002066204601F047FC70BD3D
:1004B00070B50446A56A284601F03FFC70BD0000F7
:1004C00070B50446206804F0C7FF0646206804F0B3
:1004D000C8FF98B396BB2068806800F00D00012823
:1004E0000AD1206881681A4A1140891C816000BFC6
:1004F00003202168086009E0E06D40F01000E0652D
:10050000206E40F001002066012070BD02F0B0FBBB
:10051000054614E002F0ACFB401B02280FD920680E
:10052000806800F0010050B1E06D40F01000E0651F
:10053000206E40F0010020660120E6E705E020681B
:10054000806800F001000028E4D10020DDE7000011
:10055000C0FFFF7F38B5044600200090206804F0FB
:1005600080FF00284FD1206880682849084048B1A2
:10057000E06D40F01000E065206E40F00100206664
:10058000012038BD206804F02FFF00BF204880689C
:1005900000F0E07000F4000080B11E4800681E49C1
:1005A000B0FBF1F0401C00EB40008000009002E046
:1005B0000098401E009000980028F9D102F058FBE6
:1005C00005461AE0206804F04CFF10B9206804F0DA
:1005D0000BFF02F04DFB401B02280ED9206800687B
:1005E00000F0010048B9E06D40F01000E065206EB9
:1005F00040F0010020660120C3E72068006800F099
:1006000001000028DED00020BBE700003F00008092
:100610000003005030000020400D030010B500F032
:100620002DFA0149C88010BDE80C002010B5044621
:100630007F21206800F03CFC7F21606800F038FCDE
:10064000642002F00DF9022204F10C01206801F08F
:1006500033FF206800F0B6FF606800F0B3FF10BD04
:1006600001680968D1F88010018141680968D1F8F2
:10067000801041817047000010B51248124908608F
:10068000124848600846FFF7D1FF642002F0E8F8FE
:100690000F4810490860104848600D480F4908602D
:1006A0000C4800F015FA01200D49087200F01EF800
:1006B0000C4806F0EDFE0C4803F0DCFD0A4803F0A0
:1006C00021FE10BD600800204C0C0020CC0800204A
:1006D000480A0020A40C0020940A0020E80C002006
:1006E000840F0020380D00202C0B00200B480C49F3
:1006F0000860002048600948C8600421084801617A
:1007000006480749886108210548C1610348044932
:1007100048620C210248816270470000FC090020F9
:10072000080D002010B51C4807F070FF1B4805F0AD
:1007300073FA1B4800F0BCF81A4806F0B9F81A48DA
:1007400000F042FA194807F03BFA194806F088FA17
:10075000184807F09DFA184806F018FB174806F0ED
:1007600023FA174805F07EFA164805F059FC0A48A6
:1007700090F8240030B90020134908700120064980
:10078000087305E001201049087000200249087331
:100790000E4805F089FE10BD240C00200C0C002032
:1007A0004C0C0020D80F0020E80C0020A40C0020E6
:1007B000CC0E0020B00E002094130020400F00202B
:1007C000840F0020380D002060100020080D00204C
:1007D00000BFFEE710B5094806F042FA084807F0E6
:1007E00057FA084806F0D2FA074806F0DDF907483C
:1007F00005F038FA064805F013FC10BDCC0E0020B9
:10080000B00E002094130020400F0020840F002021
:10081000380D002090ED040AD0ED060A30EE600A93
:10082000F3EE040A80EE201A9FED1E0A21EE000A64
:1008300080ED080A90ED050AD0ED070A30EE600A57
:10084000F3EE040A80EE201A9FED160A21EE000A4C
:1008500080ED090A90ED080AB0EEC00AF1EE040A34
:10086000B4EEE00AF1EE10FA0ADC90ED090AB0EEFF
:10087000C00AF1EE040AB4EEE00AF1EE10FA0DDD62
:1008800009490978491C084A117011460978052957
:1008900007DD0321054A5170917002E00021024AF0
:1008A000117070470000C8423A000020240C00205C
:1008B00000B502469FED130A82ED040A9FED110A6E
:1008C00082ED050A9FED0F0A82ED060A9FED0D0AE3
:1008D00082ED070A9FED0B0A82ED080A9FED090AD7
:1008E00082ED090A9FED070A82ED0B0A9FED050ACA
:1008F00082ED0C0A9FED030A82ED0D0A024806F014
:1009000023FF00BD00000000840C002030B503462A
:100910005C1A5D186810002C01DD254600E0654278
:10092000B5EB620F07DDB0EB620F02DBA0EB6200FC
:1009300001E000EB620030BD02465018B0FBF1F35D
:1009400001FB1300704710B50346581AB0EB620F55
:1009500000DD801A5442B0EB640F00DA104410BD81
:1009600010B5024801F032FE10BD00003809002029
:1009700030B50E4D0468AC4201D20D4901E00C497E
:1009800020310B460478083C1425B4FBF5F2446C86
:10099000A40803EB84048464054C8034C46402F02E
:1009A0001F050124AC40046530BD0000080402406E
:1009B0000008024001794A1E064B03EB82024265A1
:1009C000044A403282654A1E02F01F0301229A4007
:1009D000C26570470009024030B5D0E913546C601D
:1009E000446D14B1D0E916546C6090F8444004F0A2
:1009F0001F050124AC40056C6C600468636084686A
:100A0000102C04D10468A2600468E16003E004686B
:100A1000A1600468E26030BD7047000010B5144862
:100A2000007B01281FD005F04BF9124840780628BA
:100A30001CD140F64D001049096848630E49096809
:100A400088630D490968C8630B490968086405F0A3
:100A5000FFF90848407848B90648007830B90120C5
:100A60000349087302E001200149087310BD00002A
:100A7000240C002060100020FC0900203EB58320DB
:100A800002900020019000224FF480510E4802F0A5
:100A9000E9F84FF0FF30032301AA02A900900B48A8
:100AA00003F0FCF801221103074802F0DBF8BDF85F
:100AB0000400040ABDF80600C5B205F0FC0040EAD7
:100AC0000420C0F34D003EBD0004004898090020FA
:100AD00010B5044600202168096848626168096809
:100AE000486360680068C06840F002006168096897
:100AF000C8600021606803F053FE60680068C06849
:100B000040F0040061680968C8600421606803F06F
:100B100047FE10BD10B50446FFF7B0FFA080A088C7
:100B2000E188401A00B22081A088E080B4F9080072
:100B3000B0F5005F05DD2089A0F5804000B220817E
:100B400009E0B4F9080010F5005F04DA208900F527
:100B5000804000B22081B4F9080000EE100AB8EE1F
:100B6000C00ADFED150A20EE200ADFED140A80EE40
:100B7000201A84ED031AB4F9081060690844606112
:100B8000B4F908102069084420616069A061A08858
:100B90000B49096831F8100000EE900AF8EE600A7F
:100BA000084890ED021A60EE810AB0EE600A08F083
:100BB000FCFE84ED070A10BD00004842000080469C
:100BC0003C0000200C0C002000218180C1800181AC
:100BD000016181619FED020A80ED070A7047000004
:100BE0000000000072B600BFFEE700001B49087F4E
:100BF000012801D0032816D11949096821F4007190
:100C0000174A116000BF1146096841F40061116084
:100C10001146096821F40061116000BF114609689E
:100C200041F400711160022801D0032811D100BFE6
:100C30000B49096841F48051094A1160114609685D
:100C400021F48051116000BF1146096841F48061B0
:100C500011600021014A1177704700001000002048
:100C60000020024000F0010129B10649496941F024
:100C70000401044A51610349496941F48031014A40
:100C80005161704700200240094A526922F4FC7207
:100C9000C3B242EAC302064B5A611A46526942F095
:100CA00002025A611A46526942F480325A61704710
:100CB0000020024010B50849496941F00101064C85
:100CC0006161026000BF00BF00BFBFF36F8F00BF54
:100CD00000BF00BF436010BD00200240F0B50246D7
:100CE000402314460D460C4E766946F480260A4F82
:100CF0007E6100BFEFF31086304672B600BF2E68EB
:100D00002660241D2D1D5E1EF3B2002BF7D100BFFF
:100D100080F3108800BFF0BD0020024070B505468A
:100D200001F0A6FF064606E001F0A2FF801BA842E4
:100D300001D9032070BD1A48006900F48030B0F575
:100D4000803FF1D0164800694CF2FA3100EA010404
:100D5000CCB11448406820431249486000BF04F0F9
:100D6000404030B10E48806904F0404108430C49CE
:100D7000886124F0404018B124F0404008490861DF
:100D800000BF0120D6E70648006900F0010020B14D
:100D900000BF01200249086100BF0020CAE700002F
:100DA0000020024010000020F8B504460D46002047
:100DB00000900E490860A4F10060C00A88600846EF
:100DC000C5600120486000BFC0030949086100BF39
:100DD000002607E06946054801F056FD00B103E032
:100DE000701C86B20A2EF5DB00BFF8BD5010002043
:100DF0000020024010B501F037FE10210248FFF735
:100E0000D3FF01F0C1FD10BD000001082DE9F04144
:100E1000064620480078401C1E49087008460078A5
:100E2000401E1D4921F810601A480078042801DA94
:100E3000BDE8F0811848C088010400221648808867
:100E400012430143144843880020000440EA134041
:100E500042EA034201431048008842EA00040D467A
:100E6000002712E022462B460C480168002001F0C2
:100E70009BFD40B909480068083008490860002017
:100E80000449087003E0781C87B20A2FEADB00BF30
:100E900000BFCDE7580000204C0000205400002087
:100EA00010B501F0E1FD10BD10B501F06DFD10BDF4
:100EB000F8B504460D460020009000BF94F8580095
:100EC000012801D10220F8BD012084F8580000BF9C
:100ED0002046FFF7F5FA06468EBBE06D20F48850F9
:100EE00040F00200E065206881681B4A114005F06F
:100EF000804242F000421143816000BF13E000983D
:100F0000401C00901549009888420CD3E06D20F0F9
:100F1000020040F01000E06500BF002084F8580097
:100F200000BF0120CFE720688168C90F0029E6D102
:100F3000E06D20F0020040F00100E06504E0FFE712
:100F4000E06D40F01000E06500BF002084F858001C
:100F500000BF3046B7E70000C0FFFF3F02DE0400DD
:100F6000704700002DE9FC5F05460C46002001900B
:100F700000900027686900B100BFFE49E068884220
:100F800000D000E000BF00BF95F85800012802D152
:100F90000220BDE8FC9F012085F8580000BF686969
:100FA00010B1206A01281ED1606809284ED1A06ABC
:100FB00060B194F8280000F07C002168C1F38461DE
:100FC00040EA4120E16A40EA010703E02068C0F3FB
:100FD000846047022868C06CE749084038432968A4
:100FE000C8646F6632E0A86E90B9216AA9660020D5
:100FF0006866A06A50B1206A401E94F8281001F07B
:101000007C010843E16A40EA010701E0206A471ECB
:10101000207900F01F010020884087432068C0F33A
:101020008460217901F01F0188400743A86E401EAB
:10103000A866686E38436866A86E38B92868C06CC0
:10104000CD490840696E08432968C864286804F0DF
:10105000F4F9D8B994F8250070B994F82600400541
:1010600094F8241040EA01502968C96821F440111D
:1010700008432968C86009E02868C06820F4401067
:1010800094F8261040EA41502968C860286804F0A6
:10109000FCF98246286804F0D0F98146BAF1000FC5
:1010A0007ED1B9F1000FFBD1A06A08B1E06A88B91E
:1010B00094F82500012806D12868C06840F0007027
:1010C0002968C86017E02868C06820F000702968A7
:1010D000C86010E094F82500012806D1E86D40F0C2
:1010E0002000E8650120019005E02868C06820F034
:1010F00000702968C86094F8300001280CD1606B3A
:1011000040F00200A16B08432968096921F4FF71CE
:1011100008432968086105E02868006920F002009A
:1011200029680861A068B0F1004F0AD12168002247
:10113000286804F0D5F94FF00041286804F00CFA53
:1011400008E0A2682168286804F0CAF9002128682C
:1011500004F002FA60692968C968C1F3C101490055
:1011600000FA01F82069042840D028682268216923
:1011700000F1600C0CEB8103D3F800C0DFF8FCB188
:101180000CEA0B0C02F0F84B4BF0004B4BEA080B4F
:101190004CEA0B0CC3F800C000BF2868A26900E04D
:1011A000CCE0216900F1600C0CEB8103D3F800C0A6
:1011B0002CF0807C4CEA020CC3F800C000BF286809
:1011C000227F2169012A01D1520600E00022134644
:1011D00000F1600C0CEB8102D2F800C02CF0007C16
:1011E0004CEA030CC2F800C000BFA7E00021286849
:1011F00004F010F9C0F3120030B90021286804F09F
:1012000009F9C0F3846007E00021286804F002F9BE
:1012100090FAA0F0B0FA80F02168C1F3120119B978
:101220002168C1F3846104E0216891FAA1F1B1FA67
:1012300081F1884204D100221146286804F07BF92C
:101240000121286804F0E6F8C0F3120030B901214A
:10125000286804F0DFF8C0F3846007E00121286803
:1012600004F0D8F890FAA0F0B0FA80F02168C1F349
:10127000120119B92168C1F3846104E0216891FA6F
:10128000A1F1B1FA81F1884204D10022012128683C
:1012900004F051F90221286804F0BCF8C0F31200F0
:1012A00030B90221286804F0B5F8C0F3846007E083
:1012B0000221286804F0AEF890FAA0F0B0FA80F0AD
:1012C0002168C1F3120119B92168C1F3846104E0F6
:1012D000216891FAA1F1B1FA81F1884204D100228A
:1012E0000221286804F027F90321286804F092F805
:1012F000C0F3120030B90321286804F08BF8C0F362
:10130000846007E00321286804F084F890FAA0F0D4
:10131000B0FA80F02168C1F3120119B92168C1F354
:10132000846104E0216891FAA1F1B1FA81F1884267
:1013300004D100220321286804F0FDF8286804F095
:1013400095F8002873D12868E2682168D0F8B03099
:10135000C1F3120C23EA0C0302F0180BDFF820C0D3
:101360002CFA0BFC0CEA010C43EA0C03C0F8B03079
:1013700000BF07E000007F400040100400F0FF03C2
:10138000FFFF07007849E068884250D12368C3F323
:1013900012031BB92368C3F3846304E0236893FA40
:1013A000A3F3B3FA83F35B1C03F01F03092B3FD8AD
:1013B0002368C3F312031BB92368C3F3846304E0F7
:1013C000236893FAA3F3B3FA83F35B1C03F01F03C0
:1013D0004FF0010C0CFA03FC2368C3F312031BB992
:1013E0002368C3F3846304E0236893FAA3F3B3FA96
:1013F00083F35B1C03F01F034CEA836C2368C3F385
:1014000012031BB92368C3F3846304E0236893FACF
:10141000A3F3B3FA83F35B1C03F01F0303EB430353
:101420004FF0000B4BEA03534CEA03033FE043E069
:101430002368C3F312031BB92368C3F3846304E076
:10144000236893FAA3F3B3FA83F35B1C03F01F033F
:101450004FF0010C0CFA03FC2368C3F312031BB911
:101460002368C3F3846304E0236893FAA3F3B3FA15
:1014700083F35B1C03F01F034CEA836C2368C3F304
:1014800012031BB92368C3F3846304E0236893FA4F
:10149000A3F3B3FA83F35B1C03F01F030A3B03EBD4
:1014A00043034FF0007B4BEA03534CEA0303194616
:1014B000A268286804F014F82C492068084050B34A
:1014C00000BF2B48806800F0E07600BF2949206803
:1014D000884203D02849206888421DD106F40000C4
:1014E000D0B92868B0F1A04F37D146F400012048A8
:1014F00004F010F8214800682149B0FBF1F0801C8D
:1015000000EB40008000009002E00098401E009038
:1015100000980028F9D120E01A49206888420CD1AF
:1015200006F0807048B918492868884215D046F0FE
:1015300080710F4803F0EEFF0FE0144920688842E5
:101540000BD106F4800040B90F492868884204D0C6
:1015500046F48001064803F0DDFF00BF002085F857
:10156000580000BF019814E500007F40000008808B
:1015700000030050000021C31000C0903000002084
:10158000400D0300000052C700010050000084CB52
:1015900010B5044607492068884209D10020064951
:1015A000486204F033FE0448406A00B203490880F0
:1015B00010BD000000010050001000403400002069
:1015C000704700002DE9F041044600BF5248806892
:1015D00000F01F000546206803F02FFF10B1022025
:1015E000BDE8F0812068C06800F000472068C06C4A
:1015F00000F4C07030B92FB9E06D40F02000E06514
:101600000120EDE700BF94F85800012801D1022025
:10161000E6E7012084F8580000BF2046FEF79AFF55
:101620000646002E70D1E06D00F4807020B1206E6F
:1016300020F00800206601E000202066E06D42F204
:101640000101884340F48050E065344920688842B5
:1016500002D14FF0A04000E020682168884200D00D
:101660001DB9E06D20F48010E065602021680860FD
:1016700000BF002084F8580000BF2068C06800F454
:10168000001028B12068406840F4806021684860FC
:10169000A06908280CD12068406820F0200021684B
:1016A00048602068406840F04000216848600CE0D5
:1016B0002068406820F04000216848602068406849
:1016C00040F020002168486000BF00BF1349206837
:1016D000884202D14FF0A04000E020682168884293
:1016E00004D01DB1062D01D0072D07D1206803F0CD
:1016F0009AFE70B9206803F0A5FE0AE0E06D40F4A0
:101700008010E06505E0FFE700BF002084F8580086
:1017100000BF304664E700000003005000010050A5
:10172000704770472DE9F0439BB004460E464FF0DA
:101730000008306800B100BF00BF94F858000128CD
:1017400003D102201BB0BDE8F083012084F85800CB
:1017500000BF0020179018902068B0F1A04F02D170
:101760003148009001E000200090009850B9E06DF1
:1017700040F02000E06500BF002084F8580000BF62
:101780000120DFE7009803F080FE0746206803F0A1
:101790007CFED8BBD7BB254D306800B394F8380029
:1017A000716841EA4030A96821F460410843A860AB
:1017B0004FF0A04003F05AFE81461B4803F056FE4E
:1017C00049EA0009B9F1000F27D1B1683068084330
:1017D000A96840F61F7291430843A8601DE0A868FD
:1017E00020F46040A8604FF0A04003F03FFE814627
:1017F0000D4803F03BFE49EA0009B9F1000F0CD196
:10180000A86840F61F718843A86006E0FFE7E06D16
:1018100040F02000E0654FF0010800BF002084F890
:10182000580000BF40468DE7000100500003005003
:101830002DE9F84F05460C464FF0000A00200090B5
:10184000FE49E068884200D000E000BF00BF95F884
:101850005800012802D10220BDE8F88F012085F848
:10186000580000BF286803F00BFE00287DD12968CE
:10187000D4E9002001F1300CC0F3012B0CEB8B03F9
:10188000D3F800C000F01F0E4FF01F0B0BFA0EFB39
:101890002CEA0B0C00F01F0BC2F3846E0EFA0BFE49
:1018A0004CEA0E0CC3F800C000BF286803F0E8FD46
:1018B0008146286803F0BCFD8046B9F1000F64D171
:1018C000B8F1000FFBD1A068B0F1004F0AD1216838
:1018D0000022286803F0F0FD4FF00041286803F073
:1018E00035FE08E0A2682168286803F0E5FD0021C4
:1018F000286803F02BFE60692968C968C1F3C1013B
:10190000490000FA01F7206904283FD028682268BE
:10191000216900F1600C0CEB8103D3F800C0DFF803
:1019200020B30CEA0B0C02F0F84B4BF0004B4BEAE7
:10193000070B4CEA0B0CC3F800C000BF2868A26973
:10194000216900F1600C0CEB8103D3F800C02CF08E
:10195000807C4CEA020CC3F800C000BF2868227FDC
:101960002169012A02D1520601E0C6E10022134694
:1019700000F1600C0CEB8102D2F800C02CF0007C6E
:101980004CEA030CC2F800C000BFA7E000212868A1
:1019900003F037FDC0F3120030B90021286803F0CE
:1019A00030FDC0F3846007E00021286803F029FDC2
:1019B00090FAA0F0B0FA80F02168C1F3120119B9D1
:1019C0002168C1F3846104E0216891FAA1F1B1FAC0
:1019D00081F1884204D100221146286803F0A0FD5D
:1019E0000121286803F00DFDC0F3120030B9012178
:1019F000286803F006FDC0F3846007E00121286831
:101A000003F0FFFC90FAA0F0B0FA80F02168C1F377
:101A1000120119B92168C1F3846104E0216891FAC7
:101A2000A1F1B1FA81F1884204D100220121286894
:101A300003F076FD0221286803F0E3FCC0F31200F6
:101A400030B90221286803F0DCFCC0F3846007E0B1
:101A50000221286803F0D5FC90FAA0F0B0FA80F0DB
:101A60002168C1F3120119B92168C1F3846104E04E
:101A7000216891FAA1F1B1FA81F1884204D10022E2
:101A80000221286803F04CFD0321286803F0B9FC0B
:101A9000C0F3120030B90321286803F0B2FCC0F390
:101AA000846007E00321286803F0ABFC90FAA0F003
:101AB000B0FA80F02168C1F3120119B92168C1F3AD
:101AC000846104E0216891FAA1F1B1FA81F18842C0
:101AD00004D100220321286803F022FD286803F0C6
:101AE000C0FC002872D12868E2682168D0F8B030C4
:101AF000C1F3120C23EA0C0302F0180BDFF844C107
:101B00002CFA0BFC0CEA010C43EA0C03C0F8B030D1
:101B100000BF4A49E068884258D12368C3F31203E2
:101B20001BB92368C3F3846304E0236893FAA3F327
:101B3000B3FA83F35B1C03F01F03092B3ED8236821
:101B4000C3F312031BB92368C3F3846304E023685F
:101B500093FAA3F3B3FA83F35B1C03F01F034FF074
:101B6000010C0CFA03FC2368C3F312031BB92368AE
:101B7000C3F3846304E0236893FAA3F3B3FA83F313
:101B80005B1C03F01F034CEA836C2368C3F312034E
:101B90001BB92368C3F3846304E0236893FAA3F3B7
:101BA000B3FA83F35B1C03F01F0303EB43034FF013
:101BB000000B4BEA03534CEA030347E02368C3F3EB
:101BC000120323B92368C3F3846305E043E0236869
:101BD00093FAA3F3B3FA83F35B1C03F01F034FF0F4
:101BE000010C0CFA03FC2368C3F312031BB923682E
:101BF000C3F3846304E0236893FAA3F3B3FA83F393
:101C00005B1C03F01F034CEA836C2368C3F31203CD
:101C10001BB92368C3F3846304E0236893FAA3F336
:101C2000B3FA83F35B1C03F01F030A3B03EB43038C
:101C30004FF0007B4BEA035306E0000000007F40BA
:101C400000F0FF03FFFF07004CEA03031946A268F8
:101C5000286803F031FC2F492068084050B300BFCA
:101C60002D48806800F0E07600BF2C49206888424B
:101C700003D02B49206888421DD106F40000D0B95A
:101C80002868B0F1A04F3ED146F40001224803F08D
:101C90003BFC244800682449B0FBF1F0401C00EBF9
:101CA00040008000009002E00098401E00900098E4
:101CB0000028F9D127E01D49206888420CD106F0A0
:101CC000807048B91A49286888421CD046F0807153
:101CD000114803F019FC16E016492068884212D119
:101CE00006F4800078B91249286888420BD046F47F
:101CF0008001094803F008FC05E0E86D40F0200091
:101D0000E8654FF0010A00BF002085F8580000BFC9
:101D10005046A1E50000088000030050000021C3E8
:101D20001000C09030000020400D0300000052C79A
:101D300000010050000084CB7047704770470000DE
:101D40002DE9F84F044600200090206805682068BF
:101D50004668C54803F050FB074605F0020002281C
:101D600011D106F0020002280DD1E06D00F0100044
:101D700018B9E06D40F40060E0652046FFF7F0F828
:101D800002202168086005F00400042803D106F051
:101D90000400042807D005F0080008285FD106F0E9
:101DA000080008285BD1E06D00F0100018B9E06D64
:101DB00040F40070E065206803F06CFB002848D018
:101DC000AA492068884202D14FF0A04000E0206874
:101DD0002168884204D01FB1052F01D0092F03D1FB
:101DE0002068D0F80C800AE0A0492068884202D11F
:101DF0004FF0A04000E020688346DBF80C8008F438
:101E00000050B0F5005F24D02068006800F00800A2
:101E100008281ED1206803F033FB90B92068406881
:101E200020F00C0021684860E06D20F48070E065CF
:101E3000E06D00F4805060B9E06D40F00100E065B5
:101E400007E0E06D40F01000E065206E40F001001A
:101E500020662046FFF770FF0C202168086005F01F
:101E60002000202803D106F02000202807D005F00C
:101E70004000402872D106F0400040286ED1E06D4D
:101E800000F0100018B9E06D40F40050E0652068E3
:101E9000C16C01F4C07109B9012100E000218A463A
:101EA00000BF206803F0F6FA814670492068884236
:101EB00002D14FF0A04000E020682168884204D0A1
:101EC0001FB1062F01D0072F03D12068D0F80C8056
:101ED0000AE066492068884202D14FF0A04000E045
:101EE00020688346DBF80C80BAF1000F30D008F090
:101EF000007028B1B9F1000F2AD008F4005038BBA7
:101F00002068006800F04000402821D108F400104B
:101F1000F0B9206803F08CFA90B92068406820F08E
:101F2000600021684860E06D20F48050E065E06D5D
:101F300000F4807060B9E06D40F00100E06507E0FA
:101F4000E06D40F01000E065206E40F0010020667A
:101F50002046FFF71DFB60202168086005F0800027
:101F600080280DD106F08000802809D1E06D40F472
:101F70008030E065204600F0A9F9802021680860E3
:101F800005F48070B0F5807F0FD106F48070B0F555
:101F9000807F0AD1E06D40F40030E0652046FFF715
:101FA000BFFB4FF480702168086005F40070B0F545
:101FB000007F0FD106F40070B0F5007F0AD1E06D0C
:101FC00040F48020E0652046FFF7ABFB4FF4007043
:101FD0002168086005F0100010282AD106F01000D2
:101FE000102826D1E06B10B90120009010E047B115
:101FF00000BF1D48806800F4604048B10120009097
:1020000006E02068C06800F0010008B101200090DF
:10201000009801280AD1E06D40F48060E065206EF0
:1020200040F0020020662046FFF788FE102021685D
:10203000086005F48060B0F5806F13D106F480600D
:10204000B0F5806F0ED1E06D40F48040E065206E09
:1020500040F0080020664FF4806021680860204648
:10206000FFF7AEFABDE8F88F000300500001005002
:102070002DE9F84304464FF000080020009014B901
:102080000120BDE8F883606920B194F8240001289C
:1020900000D100BFE06D30B9204600F019F90020F2
:1020A000206684F8580020688168C1F3407131B11E
:1020B000206881687E4A1140816000BF00BF2068AF
:1020C00003F0D9F9B0B9206881687A4A114041F02B
:1020D0008051816000BF784800687849B0FBF1F01A
:1020E000401C4000009002E00098401E00900098C4
:1020F0000028F9D1206803F0BEF948B9E06D40F03E
:102100001000E065206E40F0010020664FF00108ED
:10211000206803F0B5F90646E06D00F010000028D5
:1021200077D1002EFCD1E06D20F4807040F00200E9
:10213000E065206803F095F9B0B94FF0A04003F0D6
:1021400090F981465E4803F08CF949EA0009B9F13B
:10215000000F09D160685B49896821F47C11014353
:10216000584A916000BF00BF607FE16B41EA403098
:10217000E1680843A168084394F8241040EA014547
:1021800094F82400012803D1208D401E45EA4045E3
:10219000E06A28B1A08D00F47870216B08430543F4
:1021A0002068C0684849084028432168C860206802
:1021B000006920F04060616B084321680861206875
:1021C00003F036F90746002E50D1EFBB207F0021E7
:1021D00041EA803194F8380041EA40052068C0683F
:1021E00044F20201884328432168C860206988B10D
:1021F0002068006940F48030216808612068D0F8C8
:10220000C0006FF30D00216908432168C1F8C000C8
:102210000EE045E02068006920F480302168086104
:102220002068D0F8C0006FF30D002168C1F8C0002D
:1022300094F84000012813D1606C40F00101A06CBB
:102240000843E16C084300E010E0216D0843216879
:10225000096940F2FC72914308432168086105E076
:102260002068006920F00100216808616069012888
:1022700009D12068006B20F00F00216A491E084335
:102280002168086305E02068006B20F00F002168DA
:102290000863E06D20F0020040F00100E06505E019
:1022A000E06D40F01000E0654FF001084046E8E6C0
:1022B000C0FFFF5FC0FFFF7F30000020400D030024
:1022C00000010050000300500740F0FF704700007D
:1022D00010B598B00446142113A8FEF749F844211C
:1022E00002A8FEF745F82068B0F1A04F60D14FF486
:1022F000004002908003119002A800F025FE08B172
:10230000FEF770FC65480068401C64490860084698
:10231000006801280DD100BF6148C06C40F4005036
:102320005F49C8640846C06C00F40050019000BFCB
:1023300000BF00BF5A48C06C40F001005849C86453
:102340000846C06C00F00100019000BF00BF0D20E6
:102350001390032014900020159013A94FF0904083
:1023600000F09AFB4F485049086005204860002162
:102370004D488160C160802101614900416189004F
:1023800081612021C1610021016200F09FF908B143
:10239000FEF728FC00BF44486065846200BF00224D
:1023A0001146122000F0E8FC122000F0D1FC73E08E
:1023B0003E49206888426FD1C0010290800311908D
:1023C00002A800F0C1FD08B1FEF70CFC334800681C
:1023D000401C324908600846006801280DD100BF42
:1023E0002F48C06C40F400502D49C8640846C06CAA
:1023F00000F40050019000BF00BF00BF2848C06C2F
:1024000040F001002649C8640846C06C00F0010095
:10241000019000BF00BF00BF0846C06C40F0040040
:10242000C8640846C06C00F00400019000BF00BF03
:1024300000BF0846C06C40F00200C8640846C06C8B
:1024400000F00200019000BF00BFF22013900320B3
:1024500014900020159013A94FF0904000F01CFB41
:1024600030201390032014900020159013A91048D9
:1024700000F012FB0420139003201490002015900C
:1024800013A90C4800F008FB00221146122000F0AE
:1024900073FC122000F05CFC18B010BD000000209E
:1024A000001002401C0002403809002000010050CA
:1024B00000080048000400482DE9F04104460F469A
:1024C00090463D4802F098FF0646206802F0D8FF8B
:1024D00000286DD100BF94F85800012802D10220D5
:1024E000BDE8F081012084F8580000BF1EB1052E20
:1024F00001D0092E56D12046FEF72CF80546002DB6
:102500004BD1E06D40F60161884340F48070E06596
:102510002A492068884202D14FF0A04000E020689C
:102520002168884200D01EB9E06D20F48010E0657B
:10253000E06D00F4805020B1206E20F0060020668F
:1025400001E0002020661E48616DC8621D48616D73
:1025500008631D48616D48631C202168086000BF46
:10256000002084F8580000BF2068406840F0100048
:10257000216848602068C06840F001002168C86098
:10258000226802F1400143463A46606D00F006F9C8
:102590000546206802F088FF0BE000BF002084F8A9
:1025A000580006E0012500BF002084F8580000E034
:1025B0000225284694E70000000300500001005067
:1025C00001040008B10400089304000870B5044633
:1025D000206C05682068066894F8440000F01F012C
:1025E000042088402840E0B106F00400C8B120680B
:1025F000006800F0200028B92068006820F004007E
:102600002168086094F8440000F01F01042088400D
:10261000216C4860206B002856D02046216B8847EB
:1026200052E094F8440000F01F0102208840284046
:1026300018B306F0020000B32068006800F0200024
:1026400040B92068006820F00A0021680860012075
:1026500084F8250094F8440000F01F01022088400F
:10266000216C486000BF002084F8240000BFE06AAD
:1026700050B32046E16A884726E094F8440000F011
:102680001F01082088402840F0B106F00800D8B1AA
:102690002068006820F00E002168086094F844006B
:1026A00000F01F0101208840216C48600120E06398
:1026B00084F8250000BF002084F8240000BF606B70
:1026C00010B12046616B884770BD000070B50446AC
:1026D0000CB9012070BD2F49206888420BD22E49C9
:1026E0002068401A1421B0FBF1F0800060642A4891
:1026F000083820640AE027492068401A1421B0FBFA
:10270000F1F080006064234808382064022084F8D7
:1027100025002068056847F6F0708543D4E902017A
:1027200008432169084361690843A1690843E169D5
:102730000843216A08430543206805602046FEF7E8
:1027400017F9A068B0F5804F01D1002060602079B2
:10275000A16C0860D4E913104860606860B16068DB
:10276000042809D82046FEF725F90020616D08608D
:10277000D4E91610486003E000206065A065E065BC
:102780000020E063012084F82500002084F8240064
:1027900000BF9FE708040240080002402DE9F04115
:1027A00004460D4616461F464FF0000800BF94F839
:1027B0002400012802D10220BDE8F081012084F824
:1027C000240000BF94F8250001283FD1022084F89E
:1027D00025000020E0632068006820F001002168E7
:1027E00008603B46324629462046FEF7F5F8206B46
:1027F00030B12068006840F00E00216808600BE0EE
:102800002068006820F004002168086020680068E3
:1028100040F00A0021680860A06C006800F4803075
:1028200028B1A06C006840F48070A16C0860606DF5
:1028300028B1606D006840F48070616D08602068A8
:10284000006840F001002168086006E000BF002039
:1028500084F8240000BF4FF002084046ACE70000B7
:1028600070B5044600F004FA06462546681C10B10F
:1028700004480068054400BF00F0FAF9801BA84234
:10288000FAD370BD0C0000202DE9F04104460F463C
:1028900000BF3B480078012802D10220BDE8F0814A
:1028A00001203749087000BF4FF47A70FEF736FAFE
:1028B0000646002E5DD1324948603248006800F477
:1028C000007090B12F48006800F4806048B12D4836
:1028D000006820F480602B490860032028490877AD
:1028E00015E001202649087711E02648006800F429
:1028F000806048B12348006820F480602149086066
:1029000002201F49087702E000201D49087720684F
:1029100001280ED16068FEF7A5F94FF47A70FEF732
:10292000FDF906461748406920F004001549486142
:102930001DE04FF0FF303860A56812E0284661685E
:10294000FEF7A2F94FF47A70FEF7E8F906460D4853
:10295000406920F4FD700B4948610EB13D6005E00F
:102960006D1CD4E902010844A842E7D800BFFEF775
:102970003DF900BF00200249087000BF30468DE7D6
:10298000100000200020024001200649496941F062
:102990000041044A51611146496901F0004101B109
:1029A00000207047002002402DE9F0470446884689
:1029B00015461E464FF0000900BF2948007801283F
:1029C00002D10220BDE8F08701202549087000BF30
:1029D0004FF47A70FEF7A2F90746002F38D120494C
:1029E00048602048006800F4806048B11D480068D5
:1029F00020F480601B49086002201949087702E032
:102A00000020174908773CB92A4633464046FEF76E
:102A100051F94FF001090BE0012C01D0022C07D134
:102A200029464046FEF75AF9022C01D14FF480297D
:102A30004FF47A70FEF772F90746B9F1000F05D02E
:102A40000848406920EA090006494861FEF7CEF8C7
:102A500000BF00200249087000BF3846B2E70000FE
:102A6000100000200020024000200849496901F0C0
:102A7000004151B10649054A9160064991601146ED
:102A8000496901F0004101B1012070470020024076
:102A900023016745AB89EFCD78B502460B4600218F
:102AA000CAE001268E401D6805EA0604002C73D09A
:102AB0001D7905F00305012D04D01D7905F00305EE
:102AC000022D13D190684E000325B540A8434E0057
:102AD000DD68B54028439060506801258D40A843CB
:102AE0001D79C5F300158D40284350601D7905F010
:102AF0000305032D09D0D0684E000325B540A84337
:102B00004E009D68B5402843D0601D7905F003054F
:102B1000022D13D1CE0802F1200555F826004D07ED
:102B2000EE0E0F25B540A8434E07F60E1D69B540C1
:102B30002843CE0802F1200545F8260010684E0013
:102B40000325B540A8431D7905F003054E00B540A7
:102B5000284310605D6805F44035002D6BD000BF40
:102B6000384D2D6E45F00105364E356635462D6ED5
:102B700005F00105009500BF00BF4FEAB6358E088D
:102B800055F826008D072E0F0F25B540A843B2F14A
:102B9000904F02D100251AE04DE02B4DAA4201D101
:102BA000012514E0294DAA4201D102250FE0284D4C
:102BB000AA4201D103250AE0264DAA4201D10425EB
:102BC00005E0254DAA4201D1052500E006258E0726
:102BD000360FB5402843214D8E0845F82600204D7C
:102BE0002868A0435D6805F4801505B120431C4D9D
:102BF00028602D1D2868A0435D6805F4001505B107
:102C00002043174D2D1D2860154D2D1F2868A0430A
:102C10005D6805F4003505B12043114D2D1F286076
:102C20002D1F2868A0435D6805F4803505B1204359
:102C30000B4D083D2860491C1D68CD40002D7FF4D8
:102C400030AF78BD00100240000400480008004882
:102C5000000C004800100048001400480800014023
:102C6000080401400AB1816100E081627047000000
:102C70000148006870470000040000200348006815
:102C800003490968084401490860704704000020AE
:102C90000C00002010B50024032000F0ABF80F203A
:102CA00000F008F808B1012401E000F02FF82046F8
:102CB00010BD000070B50446002511480068D8B169
:102CC0000F4800684FF47A71B1FBF0F00D490968C4
:102CD000B1FBF0F6304601F04EF958B9102C07D28E
:102CE00000222146501E00F047F80748046004E027
:102CF000012502E0012500E00125284670BD000005
:102D00000C000020300000200800002008B500BFA3
:102D10000E48006E40F001000C4908660846006E3F
:102D200000F00100009000BF00BF00BF0846806DAA
:102D300040F0805088650846806D00F0805000901B
:102D400000BF00BF00F0F6F808BD00000010024010
:102D50000146084600280DDB00BF00BF00F01F033E
:102D600001229A4043099B0003F1E023C3F80021AC
:102D700000BF00BF00BF70472DE9F05F80460D46E1
:102D8000164606F0C3FC074639462A46334601F08C
:102D90000700C0F1070ABAF1040F02D94FF0040A84
:102DA00001E0C0F1070AD14600F1040ABAF1070FA9
:102DB00002D24FF0000A01E0A0F1030AD4464FF01E
:102DC000010A0AFA09FAAAF1010A0AEA020A0AFA47
:102DD0000CFA4FF0010B0BFA0CFBABF1010B0BEAF9
:102DE000030B4AEA0B042146404606F097FCBDE877
:102DF000F09F000000BF00F00702064B19684FF675
:102E0000FF031940044B0B4343EA0221014B1960B5
:102E100000BF70470CED00E00000FA0502468ABBD7
:102E20004148006800F4C060B0F5806F2BD13E4887
:102E30008030006820F480703B4BC3F88000184657
:102E4000006820F4C06040F40070186037480068E3
:102E500032235843364BB0FBF3F0411C00E0491ECF
:102E60003148406900F48060B0F5806F01D10029DD
:102E7000F5D12D48406900F48060B0F5806F51D1E4
:102E80000320704708E028488030006820F48070F4
:102E9000254BC3F8800045E0B2F5007F3AD12248C7
:102EA000006800F4C060B0F5806F2AD11E48803001
:102EB000006840F480701C4BC3F88000184600681E
:102EC00020F4C06040F40070186018480068322395
:102ED0005843174BB0FBF3F0411C00E0491E124869
:102EE000406900F48060B0F5806F01D10029F5D110
:102EF0000D48406900F48060B0F5806F12D1032066
:102F0000BFE709488030006840F48070064BC3F882
:102F1000800007E00448006820F4C06040F480604E
:102F2000014B18600020ACE700700040300000202A
:102F300040420F000348806840F4804001498860A7
:102F400070470000007000402DE9F8430446002758
:102F5000B846206800F40020B0F5002F73D1B946C0
:102F6000D348806D00F0805078B900BFD048806DA4
:102F700040F08050CE4988650846806D00F0805052
:102F8000009000BF00BF4FF00109CA48006840F43C
:102F90008070C8490860FFF76BFE064606E0FFF741
:102FA00067FE801B022801D9032705E0C14800689D
:102FB00000F480700028F2D000BF002F46D1BC483A
:102FC0009030006800F44075CDB1206CA84216D056
:102FD000B7489030006820F44075B548D0F89000AC
:102FE00040F48030B249C1F890000846D0F8900013
:102FF00020F48030C1F890000846C0F8905005F0E9
:103000000100A0B1FFF734FE064608E0FFF730FEEE
:10301000801B41F28831884201D9032706E0A44889
:103020009030006800F002000028EFD000BF5FB9C8
:103030009F489030006820F44070216C08439C4900
:10304000C1F8900003E00CE0B84600E0B846B9F1E2
:10305000010F05D19648806D20F080509449886515
:1030600000BF207800F0010048B191488830006826
:1030700020F00300616808438D49C1F8880020787A
:1030800000F00200022809D189488830006820F049
:103090000C00A16808438649C1F88800207800F038
:1030A0000400042809D182488830006820F03000EC
:1030B000E16808437E49C1F88800207800F00800E4
:1030C000082809D17A488830006820F0C0002169BA
:1030D00008437749C1F88800207800F020002028B4
:1030E00009D173488830006820F440606169084362
:1030F0006F49C1F88800207800F04000402809D1CD
:103100006B488830006820F44050A1690843684942
:10311000C1F88800207800F08000802809D1644838
:103120008830006820F44040E16908436049C1F8F4
:103130008800208800F48070B0F5807F09D15C4859
:103140008830006820F44030216A08435849C1F8AB
:103150008800208800F40070B0F5007F09D1544841
:103160008830006820F44020616A08435049C1F863
:103170008800208800F48060B0F5806F13D14C483F
:103180008830006820F44010A16A0843484988311B
:103190000860A06AB0F5801F05D14548C06840F4BA
:1031A00080104349C860208800F40060B0F5006FCB
:1031B00013D13F488830006820F44000E16A08439A
:1031C0003B4988310860E06AB0F5800F05D1384886
:1031D000C06840F480103649C860208800F48050F0
:1031E000B0F5805F13D132488830006820F040701D
:1031F000216B08432E4988310860206BB0F1807F35
:1032000005D12B48C06840F480102949C860208847
:1032100000F40050B0F5005F13D1254888300068F5
:1032200020F04060616B0843214988310860606B81
:10323000B0F1006F05D11E48C06840F480101C49F1
:10324000C860208800F48040B0F5804F13D1184842
:103250008830006820F04060A16B08431449883131
:103260000860A06BB0F1006F05D11148C06840F450
:1032700080100F49C860208800F40040B0F5004F6E
:1032800013D10B488830006820F04050E16B0843B0
:10329000074988310860E06BB0F1805F05D10448D0
:1032A000C06840F480300249C8604046BDE8F883F9
:1032B00000100240007000402DE9F04104460D4628
:1032C0004FF0000814B90120BDE8F0817D48006886
:1032D00000F00F00A8420ED27A48006820F00F00DC
:1032E0002843784908600846006800F00F00A842AB
:1032F00001D00120E8E7207800F00100002864D028
:103300006068032823D17048006800F0007008B995
:103310000120D9E704F09CF906466C48864237D96B
:103320006948806800F0F00030B1207800F00200B9
:1033300002282DD1A06858BB6348806820F0F000B7
:1033400040F08000604988604FF0800820E06068AD
:10335000022806D15C48006800F4003040B9012022
:10336000B2E75948006800F4806008B90120ABE773
:1033700000F0DEF806465548864209D95248806872
:1033800020F0F00040F080004F4988604FF0800846
:103390004D48806820F00300616808434A4988600E
:1033A000FFF766FC074608E0FFF762FCC01B41F22E
:1033B0008831884201D9032086E74348806800F0BD
:1033C0000C006168B0EB810FEED1207800F00200B4
:1033D000022820D1207800F00400042805D13A48C2
:1033E000806840F4E06038498860207800F0080088
:1033F000082807D13448806820F4605040F4E06029
:10340000314988603048806820F0F000A1680843A6
:103410002D49886008E0B8F1800F05D12A488068FE
:1034200020F0F000284988602648006800F00F006E
:10343000A84219D92348006820F00F0028432149E9
:103440000860FFF715FC074608E0FFF711FCC01BFA
:1034500041F28831884201D9032035E719480068D4
:1034600000F00F00A842F0D1207800F004000428FA
:1034700007D11548806820F4E060E16808431249EC
:103480008860207800F00800082808D10E4880687D
:1034900020F46050216940EAC1000B49886000F0C7
:1034A00047F809498968C1F30311094A515C01F0E1
:1034B0001F01C8400749086007480068FFF7FAFB8A
:1034C00002E70000002002400010024000B4C404E3
:1034D000E89900083000002008000020014800683A
:1034E000704700003000002000B5FFF7F7FF0549E6
:1034F0008968C1F30221044A515C01F01F01C840F0
:1035000000BD000000100240F899000800B5FFF768
:10351000E5FF05498968C1F3C221044A515C01F005
:103520001F01C84000BD000000100240F8990008CB
:1035300070B5224DAD6805F00C05042D01D1204871
:103540003AE01E4DAD6805F00C05082D01D11D486F
:1035500032E01A4DAD6805F00C050C2D2BD1174D3E
:10356000ED6805F00304154DED68C5F303156A1CFD
:10357000022C0CD0032C09D1124DB5FBF2F50F4EE5
:10358000F668C6F3062605FB06F10AE000BF0C4DFF
:10359000B5FBF2F5094EF668C6F3062605FB06F103
:1035A00000BF00BF054DED68C5F341656D1C6B00A4
:1035B000B1FBF3F000E0002070BD000000100240FD
:1035C0000024F40000127A002DE9F843044614B9EF
:1035D0000120BDE8F883207800F00100002865D0C4
:1035E000FC48806800F00C07FA48C06800F0030649
:1035F0000C2F01D1032E01D0082F0AD1F548006805
:1036000000F40030002851D0606800284ED101201D
:10361000DFE700BF6068B0F5803F06D1ED48006885
:1036200040F48030EB4908601AE06068B0F5A02FE4
:103630000BD1E848006840F48020E649086008465D
:10364000006840F4803008600AE0E248006820F436
:103650008030E04908600846006820F48020086057
:1036600000BF606888B1FFF703FB054606E0FFF77F
:10367000FFFA401B642801D90320AAE7D548006857
:1036800000F400300028F2D010E0FFF7F1FA054610
:1036900006E0FFF7EDFA401B642801D9032098E704
:1036A000CC48006800F400300028F2D1207800F007
:1036B0000200022860D1C748806800F00C07C548A6
:1036C000C06800F003060C2F01D1022E01D0042F98
:1036D00018D1C048006800F4806018B1E06808B9EB
:1036E000012076E7BB48406820F0FE40217C40EA9C
:1036F0000160B8494860B8480068FFF7DBFA18B3C2
:10370000012066E7E06800B3B248006840F48070CA
:10371000B0490860FFF7ACFA054606E0FFF7A8FAE3
:10372000401B022801D9032053E7AA48006800F48F
:1037300080600028F2D0A748406820F0FE40217C3D
:1037400040EA0160A349486016E0A248006820F4FE
:103750008070A0490860FFF78BFA054606E0FFF786
:1037600087FA401B022801D9032032E799480068F4
:1037700000F480600028F2D1207800F008000828CA
:1037800036D16069D0B193489430006840F00100B0
:103790009049C1F89400FFF76BFA054606E0FFF781
:1037A00067FA401B022801D9032012E789489430A8
:1037B000006800F002000028F1D019E0854894303C
:1037C000006820F001008349C1F89400FFF750FA27
:1037D000054606E0FFF74CFA401B022801D90320FA
:1037E000F7E67C489430006800F002000028F1D130
:1037F000207800F00400042872D14FF000087548CA
:10380000806D012121EA107078B100BF7148806D90
:1038100040F080506F4988650846806D00F0805008
:10382000009000BF00BF4FF001086C48006800F432
:103830008070B0B96948006840F4807067490860DA
:10384000FFF716FA054606E0FFF712FA401B0228BA
:1038500001D90320BDE66148006800F480700028AB
:10386000F2D000BFA068012808D15A489030006803
:1038700040F001005749C1F8900021E0A0680528F8
:103880000FD154489030006840F004005149C1F80D
:1038900090000846D0F8900040F00100C1F8900078
:1038A0000EE04C489030006820F001004949C1F812
:1038B00090000846D0F8900020F00400C1F8900075
:1038C00000BFA068A8B1FFF7D3F9054609E0FFF7EC
:1038D000CFF9401B41F28831884202D9032078E6B3
:1038E00025E03C489030006800F002000028EED04F
:1038F00013E0FFF7BDF9054608E0FFF7B9F9401BF3
:1039000041F28831884201D9032062E63148903083
:10391000006800F002000028EFD1B8F1010F05D1D6
:103920002C48806D20F080502A49886500BF20789F
:1039300000F02000202836D1A069D0B12548983069
:10394000006840F001002349C1F89800FFF790F9A2
:10395000054606E0FFF78CF9401B022801D9032039
:1039600037E61C489830006800F002000028F1D0CB
:1039700019E018489830006820F001001549C1F896
:103980009800FFF775F9054606E0FFF771F9401B4F
:10399000022801D903201CE60E489830006800F088
:1039A00002000028F1D1E069002860D00948806851
:1039B00000F00C000C287AD0E069022858D10548A4
:1039C000006820F0807003490860FFF751F9054650
:1039D0000DE00000001002400800002000700040D0
:1039E000FFF746F9401B022801D90320F1E54A48B8
:1039F000006800F000700028F2D1D4E90810401EE1
:103A000041EA0011A06A41EA0021208E0122C2EBA6
:103A1000500041EA40513420005DC2EB500041EAC1
:103A200040612C20005D41EAC0603B49C9683B4AC7
:103A3000114008433849C8600846006840F080706B
:103A400008600846C06840F08070C860FFF710F951
:103A5000054606E0FFF70CF9401B022801D90320B8
:103A6000B7E52D48006800F000700028F2D051E062
:103A70002948006820F0807027490860FFF7F8F8AF
:103A8000054606E0FFF7F4F8401B022801D90320A1
:103A90009FE52148006800F000700028F2D11E4820
:103AA000C0681F4908401C49C86033E0FFE7E0696F
:103AB000012800D18DE51848C66806F00301206A88
:103AC000814225D106F0F001606A401EB1EB001F73
:103AD0001ED106F4FE41A06AB1EB002F18D106F00A
:103AE00078412C20005DB1EBC06F11D106F4C0010C
:103AF000208E0122C2EB5000B1EB405F08D106F0EE
:103B0000C0613420005DC2EB5000B1EB406F01D0CA
:103B100001205EE500205CE5001002400C809F0162
:103B2000FCFFEEFE70B504460CB9012070BD606A62
:103B300038B96068B0F5827F00D105E00021E1610D
:103B400002E00021216161610021A16294F85D0021
:103B500028B9002084F85C00204600F061F80220BB
:103B600084F85D002068006820F04000216808604B
:103B7000E068B0F5E06F01D9002501E04FF4805511
:103B8000E068B0F5706F05D0E068B0F5E06F01D087
:103B90000021A162A08800F48270218901F404410F
:103BA0000843217C01F002010843217D01F001015D
:103BB0000843218B01F400710843217F01F0380193
:103BC00008432021095D01F080010843218D01F4A3
:103BD00000510843216808600421A06901EA1040EF
:103BE00094F8241001F01001084394F8341001F007
:103BF00008010843A18901F47061084305F480516C
:103C00000843216848602068C06920F4006021688A
:103C1000C86100202066012084F85D00002085E74F
:103C200010B586B00446142101A8FCF7A1FB184981
:103C30002068884229D100BF1648806D40F480403A
:103C4000144988650846806D00F48040009000BFEC
:103C500000BF00BF0846C06C40F00200C8640846C0
:103C6000C06C00F00200009000BF00BF4FF4604045
:103C70000190022002900020039003200490052070
:103C8000059001A90448FEF707FF06B010BD00002B
:103C90000038004000100240000400482DE9FE4FAB
:103CA00004460F4690461D460C9E01200090FEF7EC
:103CB000DFFF824694F85DB060680190A9460295E6
:103CC000BBF1010F0BD00198B0F5827F04D1A06841
:103CD00010B9BBF1040F02D00220BDE8FE8F1FB166
:103CE000B8F1000F00D00DB90120F6E700BF94F83D
:103CF0005C00012801D10220EFE7012084F85C007C
:103D000000BF94F85D00042802D0052084F85D000F
:103D100000202066C4F84080A4F84650A4F844501F
:103D2000A763E587A587E0642065E068B0F5E06FEC
:103D300002D80298012806D92068406820F48050F3
:103D40002168486005E02068406840F480502168A0
:103D500048602068006800F04000402805D02068D6
:103D6000006840F0400021680860E068B0F5E06F4E
:103D700056D9606810B1B9F1010F09D1A06B008864
:103D80002168C860A06B801CA063E08F401EE087A4
:103D90003EE02068806800F00200022810D1E08F29
:103DA00070B1009801280BD1A06B00882168C86011
:103DB000A06B801CA063E08F401EE0870020009075
:103DC0002068806800F0010080B1B4F8460068B156
:103DD0002068C068216C0880206C801C2064B4F8C6
:103DE0004600401EA4F8460001200090FEF740FF68
:103DF000A0EB0A00B0420BD3701C48B1012084F83C
:103E00005D0000BF002084F85C0000BF032064E771
:103E1000E08F0028BDD1B4F846000028B9D18DE06C
:103E2000606810B1B9F1010F17D1E08F01280AD9EC
:103E3000A06B00882168C860A06B801CA063E08F25
:103E4000801EE08709E0A06B007821680873A06BF2
:103E5000401CA063E08F401EE08768E02068806817
:103E600000F0020002281ED1E08FE0B10098012886
:103E700019D1E08F01280AD9A06B00882168C86099
:103E8000A06B801CA063E08F801EE08709E0A06B20
:103E9000007821680873A06B401CA063E08F401E6F
:103EA000E087002000902068806800F0010058B38F
:103EB000B4F8460040B3B4F84600012816D920688B
:103EC000C068216C0880206C801C2064B4F8460017
:103ED000801EA4F84600B4F84600012812D82068D5
:103EE000406840F48050216848600BE02068007B07
:103EF000216C0870206C401C2064B4F84600401E01
:103F0000A4F8460001200090FEF7B2FEA0EB0A00E4
:103F1000B04201D3701C00B94EB9012084F85D0095
:103F200000BF002084F85C0000BF0320D5E6E08FCE
:103F3000002893D1B4F8460000288FD1524631466C
:103F4000204603F063FC40B12020206600BF002023
:103F500084F85C0000BF0120BFE6012084F85D000A
:103F600000BF002084F85C0000BF206E08B1012073
:103F7000B3E60020B1E670B504462546681EB0F1F0
:103F8000807F01D301200FE0681E4FF0E0214861DF
:103F90000F214FF0FF3005F0C1FB00204FF0E02172
:103FA000886107200861002070BD70477047704726
:103FB00010B50346002200BF93F83C00012801D150
:103FC000022010BD012083F83C0000BF22F0FF005A
:103FD000CC6840EA040222F440708C6840EA040293
:103FE00022F480604C6840EA040222F400600C680D
:103FF00040EA040222F480500C6940EA040222F4F0
:1040000000504C6940EA040222F480400C6B40EA04
:10401000040222F470200C8B40EA044222F080500B
:10402000CC6940EA0402124C1868A04203D0114C3B
:104030001868A04213D122F470000C8D40EA04529B
:1040400022F080700C6A40EA040222F000704C6A90
:1040500040EA040222F00050CC6A40EA04021868E8
:10406000426400BF002083F83C0000BF00BFA8E707
:10407000002C014000340140704770477047000039
:1040800030B502460B4600BF92F83C00012801D132
:10409000022030BD012082F83C0000BF022082F8DF
:1040A0003D0010684168106884681D4D1068A84282
:1040B00003D01C4D1068A84203D121F47001586848
:1040C0000143194801401868014310684160144DCC
:1040D0001068A84213D01068B0F1804F0FD0134D74
:1040E0001068A8420BD0124D1068A84207D00D4DA1
:1040F0001068A84203D00F4D1068A84205D124F0E3
:1041000080049868044310688460012082F83D00B0
:1041100000BF002082F83C0000BF00BFB9E70000EC
:10412000002C0140003401408FFFFFFD00040040DF
:104130000008004000400140704710B504460CB92B
:10414000012010BD94F83D0028B9002084F83C00FF
:10415000204600F029F8022084F83D00211D206847
:1041600004F092FA012084F8480000BF84F83E0071
:1041700001213F2001554020015541200155422099
:1041800001554320015500BF00BF012084F84400C1
:1041900045200155462001554720015500BF01200B
:1041A00084F83D000020CCE738B504462C4920684F
:1041B000884216D100BF2B48006E40F400602949A8
:1041C00008660846006E00F40060009000BF00BF63
:1041D000002211461920FEF7CFFD1920FEF7B8FD89
:1041E0003DE02149206888420DD100BF1D48806D07
:1041F00040F002001B4988650846806D00F002000F
:10420000009000BF2BE01949206888420DD100BF03
:104210001448806D40F00400124988650846806D9E
:1042200000F00400009000BF19E0114920688842A6
:1042300015D100BF0B48806D40F01000094988651A
:104240000846806D00F01000009000BF00BF002203
:1042500011463620FEF790FD3620FEF779FD38BD79
:10426000002C014000100240000400400008004003
:1042700000100040014691F83D00012801D00120C6
:104280007047022081F83D00184B0868984213D00F
:104290000868B0F1804F0FD0154B086898420BD0DA
:1042A000144B0868984207D0134B0868984203D013
:1042B000124B0868984210D108688068104B00EAD9
:1042C0000302062A0FD0B2F5803F0CD008680068C0
:1042D00040F001000B68186005E00868006840F0D5
:1042E00001000B6818600020CAE70000002C0140A4
:1042F000000400400008004000340140004001403C
:1043000007000100014691F83D00012801D001207D
:104310007047022081F83D000868C06840F0010045
:104320000B68D860184B0868984213D00868B0F141
:10433000804F0FD0154B086898420BD0144B08687B
:10434000984207D0134B0868984203D0124B086874
:10435000984210D108688068104B00EA0302062AD0
:104360000FD0B2F5803F0CD00868006840F0010023
:104370000B68186005E00868006840F001000B68F1
:1043800018600020C4E70000002C01400004004039
:1043900000080040003401400040014007000100D7
:1043A0002DE9F04104460D46002700BF94F83C007B
:1043B000012802D10220BDE8F081012084F83C00F0
:1043C00000BF022084F83D00206886683F48064010
:1043D00026F47F46206886602868702824D00CDC8C
:1043E00000F00F01002964D10011072861D2DFE835
:1043F00000F05354555649353F00354A811A9042D2
:104400004FD009DCB0F5805F0DD0B0F5005F18D05B
:10441000B0F1101F4DD143E0102943D0202942D0E4
:10442000502946D140E046E0D5E902136A68206889
:1044300004F0A1F92068866846F077062068866057
:1044400039E0D5E902136A68206804F094F920681D
:10445000806840F48040216888602CE0EA686968E0
:10446000206804F0F5FB5021206804F08FF922E069
:10447000EA686968206804F03DFC6021206804F067
:1044800085F918E0EA686968206804F0E1FB4021DA
:10449000206804F07BF90EE000BF00BF00BF00BF42
:1044A00000BF00BF00BF00BF2968206804F06EF99C
:1044B00001E0012700BF00BF012084F83D0000BFDC
:1044C000002084F83C0000BF384674E788FFCEFF28
:1044D000200010002DE9F04104460D4614B90120DA
:1044E000BDE8F08194F83D0028B9002084F83C0034
:1044F000204600F055F8022084F83D0020688068CE
:104500002649084021688860211D206804F0BCF815
:104510002068D0F80880206886692068076A2868C3
:1045200040EA080840F203308643A969A86840EAD7
:104530000120064340F60C4086434FF2F0008643CC
:10454000E969E86840EA0120064328690001296A10
:1045500040EA0130064327F0220727F088076969FF
:10456000686840EA011007432068C0F808802068A6
:10457000866120680762012084F8480084F83E00C4
:1045800001213F200155012084F8440045200155B8
:10459000012084F83D000020A2E70000F8BFFEFFE4
:1045A00010B586B00446142101A8FBF7E1FE20688F
:1045B000B0F1804F45D100BF2348806D40F001002D
:1045C000214988650846806D00F00100009000BF19
:1045D00000BF00BF0846C06C40F00100C864084638
:1045E000C06C00F00100009000BF00BF00BF084693
:1045F000C06C40F00200C8640846C06C00F00200C5
:10460000009000BF00BF4FF40040019002200290D4
:1046100001200390022004900120059001A94FF091
:104620009040FEF739FA0820019002200290012004
:104630000390022004900120059001A90348FEF791
:104640002BFA06B010BD0000001002400004004824
:1046500070472DE9F04104460D461646002700BF7D
:1046600094F83C00012802D10220BDE8F08101202D
:1046700084F83C0000BF96B9EB68D5E900122068C9
:1046800004F0FAFA2068806920F00C002168886143
:1046900020688069A96808432168886141E0042E88
:1046A00013D1EB68D5E90012206804F037FB2068CD
:1046B000806920F440602168886120688069A96869
:1046C00040EA0120216888612BE0082E12D1EB68B6
:1046D000D5E90012206804F03EFB2068C06920F094
:1046E0000C002168C8612068C069A9680843216876
:1046F000C86116E00C2E13D1EB68D5E900122068D2
:1047000004F045FB2068C06920F440602168C8615E
:104710002068C069A96840EA01202168C86100E0FA
:10472000012700BF002084F83C0000BF38469CE70A
:1047300010B504460CB9012010BD94F83D0028B90D
:10474000002084F83C00204600F029F8022084F87C
:104750003D00211D206803F097FF012084F84800E8
:1047600000BF84F83E0001213F2001554020015543
:1047700041200155422001554320015500BF00BF93
:10478000012084F84400452001554620015547206A
:10479000015500BF012084F83D000020CCE77047A0
:1047A0002DE9F04304460D46002715B994F83E0064
:1047B00015E0042D02D13F20005D10E0082D02D14C
:1047C0004020005D0BE00C2D02D14120005D06E091
:1047D000102D02D14220005D01E04320005D8046A3
:1047E00015B994F844000BE0042D02D14520005D7A
:1047F00006E0082D02D14620005D01E04720005D63
:104800008146B8F1010F02D1B9F1010F02D00120A8
:10481000BDE8F0831DB9022084F83E001AE0042DA3
:1048200003D102213F20015514E0082D03D10221BC
:10483000402001550EE00C2D03D1022141200155ED
:1048400008E0102D03D102214220015502E002218F
:10485000432001551DB9022084F844000EE0042DC8
:1048600003D102214520015508E0082D03D1022182
:104870004620015502E002214720015535B1042DA3
:104880000BD0082D10D00C2D1CD114E02068C0686E
:1048900040F002002168C86016E02068C06840F05F
:1048A00004002168C8600FE02068C06840F008007C
:1048B0002168C86008E02068C06840F010002168E6
:1048C000C86001E0012700BF00BF67BB0122294685
:1048D000206803F03FFF18492068884213D0206801
:1048E000B0F1804F0FD01549206888420BD0144991
:1048F0002068884207D013492068884203D01249B3
:104900002068884210D120688068104900EA0106BA
:10491000062E0FD0B6F5803F0CD02068006840F01E
:1049200001002168086005E02068006840F001008F
:104930002168086038466BE7002C01400004004005
:104940000008004000340140004001400700010021
:1049500070B504462068C6682068056905F0020045
:10496000022819D106F00200022815D1401F216843
:104970000861012020772068806900F0030018B1E9
:104980002046FFF765FE05E0204600F01FF92046AF
:1049900000F00DFA0020207705F00400042819D15A
:1049A00006F00400042815D1C043216808610220E4
:1049B00020772068806900F4407018B12046FFF726
:1049C00047FE05E0204600F001F9204600F0EFF92F
:1049D0000020207705F00800082819D106F008000B
:1049E000082815D1C0432168086104202077206879
:1049F000C06900F0030018B12046FFF729FE05E06A
:104A0000204600F0E3F8204600F0D1F9002020779E
:104A100005F01000102819D106F01000102815D14B
:104A2000C04321680861082020772068C06900F42D
:104A3000407018B12046FFF70BFE05E0204600F05D
:104A4000C5F8204600F0B3F90020207705F00100FA
:104A500048B106F0010030B16FF001002168086133
:104A6000204600F04BFA05F08000802804D005F4C1
:104A70000050B0F5005F0AD106F08000802806D112
:104A80006FF40250216808612046FFF78FFA05F4A1
:104A90008070B0F5807F0AD106F08000802806D1B2
:104AA0006FF48070216808612046FFF77EFA05F0F8
:104AB0004000402809D106F04000402805D1C043FD
:104AC00021680861204600F050FA05F020002028F7
:104AD00009D106F02000202805D1C04321680861D3
:104AE0002046FFF764FA05F48010B0F5801F0BD163
:104AF00006F48010B0F5801F06D16FF48010216895
:104B000008612046FFF7B9FA05F40010B0F5001F60
:104B10000BD106F40010B0F5001F06D16FF40010A1
:104B2000216808612046FFF7A7FA05F48000B0F578
:104B3000800F0BD106F48000B0F5800F06D16FF422
:104B40008000216808612046FFF798FA05F400000C
:104B5000B0F5000F0BD106F40000B0F5000F06D140
:104B60006FF40000216808612046FFF7E5FA70BD88
:104B700010B586B00446142101A8FBF7F9FB1049D3
:104B8000206888421AD100BF0E48C06C40F0040073
:104B90000C49C8640846C06C00F00400009000BFD7
:104BA00000BF0F20019002200290002003900220FD
:104BB0000490059001A90448FDF76EFF06B010BDF2
:104BC000002C0140001002400008004870472DE909
:104BD000F04104460D461646002700BF94F83C00FD
:104BE000012802D10220BDE8F081012084F83C00B8
:104BF00000BF0C2E51D005DC4EB1042E1ED0082E65
:104C00007AD133E0102E60D0142EF9D175E0294608
:104C1000206803F0C7FD2068806940F00800216823
:104C200088612068806920F004002168886120681C
:104C30008069296908432168886178E029462068ED
:104C400003F006FE2068806940F4006021688861F6
:104C50002068806920F4806021688861206880690C
:104C6000296940EA01202168886160E029462068BE
:104C700003F048FE2068C06940F008002168C86160
:104C80002068C06920F004002168C8612068C069FC
:104C9000296908432168C86149E02946206803F072
:104CA0008BFE2068C06940F400602168C8612068FC
:104CB000C06920F480602168C8612068C0692969E2
:104CC00040EA01202168C86131E02946206803F0EC
:104CD000CDFE2068006D40F008002168086520685E
:104CE000006D20F00400216808652068006D2969C6
:104CF0000843216808651AE017E02946206803F098
:104D0000EDFE2068006D40F40060216808652068B1
:104D1000006D20F48060216808652068006D2969B5
:104D200040EA01202168086501E0012700BF00BFBB
:104D300000BF002084F83C0000BF384653E710B5A0
:104D400004460CB9012010BD94F83D0028B900209C
:104D500084F83C00204600F029F8022084F83D0049
:104D6000211D206803F090FC012084F8480000BF5A
:104D700084F83E0001213F2001554020015541208B
:104D80000155422001554320015500BF00BF0120BD
:104D900084F844004520015546200155472001551F
:104DA00000BF012084F83D000020CCE77047704729
:104DB00070B504460D4615B994F83E0015E0042D73
:104DC00002D13F20005D10E0082D02D14020005D9F
:104DD0000BE00C2D02D14120005D06E0102D02D128
:104DE0004220005D01E04320005D012801D0012048
:104DF00070BD1DB9022084F83E001AE0042D03D1D5
:104E000002213F20015514E0082D03D1022140204A
:104E100001550EE00C2D03D102214120015508E07F
:104E2000102D03D102214220015502E0022143202E
:104E3000015501222946206803F08CFC274920688F
:104E400088420FD02649206888420BD02549206827
:104E5000884207D024492068884203D0234920682B
:104E6000884201D1012000E0002028B12068406C78
:104E700040F400402168486418492068884213D0F3
:104E80002068B0F1804F0FD01949206888420BD0BC
:104E900018492068884207D011492068884203D009
:104EA00010492068884210D120688068124900EAC1
:104EB0000106062E0FD0B6F5803F0CD020680068A2
:104EC00040F001002168086005E02068006840F0BB
:104ED00001002168086000208AE70000002C0140E2
:104EE00000340140004001400044014000480140BE
:104EF000000400400008004007000100704770B542
:104F000004460D4600BF94F83C00012801D1022060
:104F100070BD012084F83C0000BF022084F83D00F1
:104F20002946204603F012FE48B1012084F83D00D6
:104F300000BF002084F83C0000BF0120E8E72068A3
:104F4000C06820F040002168C8602068C06820F474
:104F500080402168C860012084F83D0000BF002027
:104F600084F83C0000BF00BFD2E77047014600BF95
:104F700091F88400012801D102207047012081F8B6
:104F8000840000BF2420C1F888000868026808680F
:104F9000006820F001000B68186022F00052002029
:104FA0004866086802602020C1F8880000BF002021
:104FB00081F8840000BF00BFDFE770B504460D46EE
:104FC00000BF94F88400012801D1022070BD0120A7
:104FD00084F8840000BF2420C4F888002068066894
:104FE0002068006820F0010021680860206880685F
:104FF00020F06060284321688860204603F0E6FEC8
:10500000206806602020C4F8880000BF002084F8D3
:10501000840000BF00BFD9E770B504460D4600BF4D
:1050200094F88400012801D1022070BD012084F889
:10503000840000BF2420C4F8880020680668206827
:10504000006820F00100216808602068806820F076
:105050006040284321688860204603F0B7FE20683E
:1050600006602020C4F8880000BF002084F8840077
:1050700000BF00BFD9E710B504460CB9012010BD30
:10508000A06900B100E000BFD4F8880028B9002072
:1050900084F88400204600F02BF82420C4F888000F
:1050A0002068006820F0010021680860A06A10B143
:1050B000204603F0B7FE204603F0DCFF012800D1B4
:1050C000DDE72068406820F490402168486020684F
:1050D000806820F02A00216888602068006840F01D
:1050E000010021680860204603F018FFC7E70000B0
:1050F00010B598B00446142113A8FBF739F94421E0
:1051000002A8FBF735F91C492068884231D10120FB
:1051100002900020039002A8FDF716FF08B1FBF7EC
:1051200061FD00BF1548006E40F4804013490866D9
:105130000846006E00F48040019000BF00BF00BF31
:105140000846C06C40F00200C8640846C06C00F01D
:105150000200019000BF00BFC020139002201490F5
:105160000020159016900720179013A90448FDF70A
:1051700093FC18B010BD0000003801400010024040
:105180000004004800BFFEE790ED010AD0ED040ADC
:1051900020EE200AD0ED000A90ED051A00EEC10ABB
:1051A00080ED020A90ED000AD0ED040A20EE200AFC
:1051B000D0ED010A90ED051A00EE810A80ED030A98
:1051C0007047000010B5044694ED030AF7EE000A9C
:1051D00060EE200A7C48008800EE100AB8EE400A13
:1051E00020EE800ADFED790A20EE200A9FED781A82
:1051F000C0EE010A9FED770A80EE801A84ED051A51
:10520000D4ED070A7048008800EE100AB8EE400A94
:1052100020EE800ADFED6D0A20EE200A9FED6C1A69
:10522000C0EE010A9FED6B1A80EE810ADFED6A0A7B
:1052300080EE201A84ED081A6848407B012804D1CA
:1052400067480088401C6649088065480088052832
:1052500068DB94ED060AD4ED050AB4EEE00AF1EE3F
:1052600010FA18D294ED060AD4ED080A30EE200A9E
:1052700084ED060AD4ED051AB0EE611AD4ED061AD3
:10528000F0EE610AD4ED061AB0EE610A04F078FB84
:1052900084ED060A20E094ED060AD4ED050AB4EE8A
:1052A000E00AF1EE10FA17DD94ED060AD4ED080AD3
:1052B00030EE600A84ED060AD4ED061AB0EE611AEB
:1052C000D4ED051AF0EE610AD4ED061AB0EE610ACB
:1052D00004F056FB84ED060A00204149088094ED55
:1052E000060AB0EEC00AD4ED0B0A30EE600A84ED77
:1052F0000C0A94ED060AB0EEC00A84ED0B0A94ED98
:105300000C0AB5EEC00AF1EE10FA00DD09E094EDEA
:105310000C0AB5EEC00AF1EE10FA01D2022000E04C
:105320000120607294ED060AB5EEC00AF1EE10FAA3
:1053300002DD4FF0FF3000E00120A07294ED0A0A78
:10534000D4ED060A30EE200A84ED0A0A94ED0A0A2A
:10535000F7EE000AB4EEE00AF1EE10FA08DA94ED86
:105360000A0AFFEE000AB4EEE00AF1EE10FA19D8CC
:10537000616C94ED0A0ABDEEC00A10EE100A0844F2
:105380006064216C94ED0A0ABDEEC00A10EE100AAA
:1053900008442064D4ED0A0AB0EE600A04F005FB6C
:1053A00084ED0A0AD4ED060A0748008800EE100AC8
:1053B000B8EE401A80EE810ADFED0A0A80EE201A6C
:1053C00084ED041A10BD00000C0C002000004842BF
:1053D0000000704200409C4600007A45240C0020EA
:1053E0004A0000203EC32E388168024A1140491C01
:1053F00081607047C0FFFF7F0146886800F01F0092
:105400007047024602F1600000EB8103186800F06B
:10541000F8407047024602F1600000EB8103186813
:1054200000F0F84070470146C86800F0007070470F
:1054300001468868C0F3C000704701468868C0F321
:10544000C00070478168034A114041F00801816043
:1054500070470000C0FFFF7F01468868C0F340002E
:1054600070470146886800F001007047014688686F
:1054700000F00100704701468868C0F30070704773
:1054800001468868C0F38000704701468868C0F311
:10549000800070470146C86800F4406008B90120E8
:1054A00070470020FCE700008168024A1140091D96
:1054B00081607047C0FFFF7F70B500F11404C1F335
:1054C000406504EB85031C68C1F304560725B5400D
:1054D000AC43C1F3045502FA05F52C431C6070BDC2
:1054E00070B500F11404C1F3406504EB85031C683A
:1054F000C1F304560725B540AC43C1F3045502FA85
:1055000005F52C431C6070BD826822F0E0720A43EE
:1055100082607047826822F0E0720A4382607047BE
:1055200010B500F1600404EB81031C6824F0004412
:1055300014431C6010BD10B500F1600404EB81033E
:105540001C6824F0004414431C6010BD426922F022
:1055500000420A4342617047426922F000420A4316
:105560004261704700B59BB00020189019901A90C6
:105570003C2109A8FAF7FCFE202101A8FAF7F8FE61
:105580004FF0A040374908604FF440304860002198
:1055900034488160C1600161012141610421816160
:1055A000002101770121417702210162002180F869
:1055B0002410C1620163012180F838100021C16309
:1055C00080F84010FCF754FD08B1FBF70BFB0020FE
:1055D000189018A92348FCF7A5F808B1FBF702FBBF
:1055E0002148099009200A9001200B907F200C90FF
:1055F00004200D9000200E900120119000208DF8C5
:1056000048008DF849008DF84A00802013901490CE
:1056100000208DF8540009A91248FBF7A3FC08B13B
:10562000FBF7E0FA11480190062002900520039054
:105630007F200490042005900020069001A90948CD
:10564000FCF7F6F808B1FBF7CDFA094801900C20F9
:10565000029001A90348FCF7EBF808B1FBF7C2FA86
:105660001BB000BD600800200800900C1000C010A6
:105670000200300400B58FB03C216846FAF778FE8E
:105680002148224908604FF44030486000211F48FB
:105690008160C16001614161042181610021017764
:1056A000417701210162002180F8241080F8381030
:1056B000C16380F84010FCF7DBFC08B1FBF792FAFD
:1056C0001348009009200190012002907F20039050
:1056D00004200490002005900120089000208DF8FF
:1056E00024008DF825008DF8260080200A900B906C
:1056F00000208DF8300069460448FBF733FC08B100
:10570000FBF770FA0FB000BD00010050CC0800207C
:105710000800900C08B500BF1148806C40F00400F0
:105720000F4988640846806C00F00400009000BFB8
:1057300000BF00BF0846806C40F001008864084646
:10574000806C00F00100009000BF00BF0022022129
:105750000C20FDF711FB0C20FDF7FAFA08BD000044
:105760000010024000B587B0142102A8FAF700FE2D
:1057700000BF3348C06C40F004003149C86408469B
:10578000C06C00F00400019000BF00BF00BF0846DD
:10579000C06C40F02000C8640846C06C00F02000D7
:1057A000019000BF00BF00BF0846C06C40F0010080
:1057B000C8640846C06C00F00100019000BF00BF43
:1057C00000BF0846C06C40F00200C8640846C06CC8
:1057D00000F00200019000BF00BF00224FF46041C2
:1057E0001848FDF73FFA01224FF481511648FDF7A2
:1057F00039FA4FF460400290012003900020049099
:10580000059002A90F48FDF747F94FF48050029028
:105810000120039004900320059002A90A48FDF797
:105820003BF92020029001200390002004900120E9
:10583000059002A90448FDF72FF907B000BD00004C
:1058400000100240000800480004004810B512484B
:10585000124908604FF48270486000210F4881604F
:105860004FF4E061C16002210161002141614FF408
:10587000007181610821C161002101624162816280
:105880000721C1620021016308214163FEF74AF943
:1058900008B1FBF7A7F910BD0038004098090020B7
:1058A00000B59BB000201790189019901A90149092
:1058B000159016901C210DA8FAF75AFD3421684660
:1058C000FAF756FD3D483E49086000204860202117
:1058D0003B48816041F29A01C160002101610121D0
:1058E000416180218161FEF728FC08B1FBF77AF95C
:1058F0004FF48050179017A93148FEF751FD08B1B9
:10590000FBF770F92E48FFF71AFA08B1FBF76AF9AE
:105910002020149000201590169014A92848FEF716
:10592000AFFB08B1FBF75EF970200D9000200E90E0
:105930000F90109011901290139000220DA9204802
:10594000FFF745F908B1FBF74DF904220DA91C48F2
:10595000FFF73DF908B1FBF745F908220DA91848F2
:10596000FFF735F908B1FBF73DF90C220DA91448F2
:10597000FFF72DF908B1FBF735F9002000900190F1
:105980000290039004904FF4005005900020069080
:10599000079008904FF00070099000200A900B903B
:1059A0000C9069460648FEF703FB08B1FBF71AF9AD
:1059B0000348FFF7DDF81BB000BD0000002C0140DC
:1059C000FC09002000B58DB0242104A8FAF7D0FC12
:1059D00000200190029003904FF080401949086028
:1059E0000020486000211748816040F6FF71C160C7
:1059F00000210161816103200490002005900120B5
:105A000006900020079004200890002009900120B3
:105A10000A9000200B9004200C9004A90948FEF77E
:105A200059FD08B1FBF7DEF84FF00070019000203F
:105A3000039001A90348FEF723FB08B1FBF7D2F856
:105A40000DB000BD480A002000B58DB0142108A893
:105A5000FAF78EFC002005900690079001900290C6
:105A6000039004901F4820490860002048600021EE
:105A70001D48816040F6FF71C160002101618161B4
:105A8000FEF75BFB08B1FBF7ADF81748FEF750FED9
:105A900008B1FBF7A7F8002008901020099008A98A
:105AA0001148FFF72CFA08B1FBF79CF8002005908D
:105AB000079005A90C48FEF7E3FA08B1FBF792F846
:105AC0000020019003200290002003900490002207
:105AD00001A90548FEF7BDFD08B1FBF783F80DB03D
